{
  "_format": "hh-sol-artifact-1",
  "contractName": "NFTMarketplace",
  "sourceName": "contracts/NFTMarketplace.sol",
  "abi": [
    {
      "inputs": [],
      "stateMutability": "nonpayable",
      "type": "constructor"
    },
    {
      "anonymous": false,
      "inputs": [
        {
          "indexed": true,
          "internalType": "address",
          "name": "owner",
          "type": "address"
        },
        {
          "indexed": true,
          "internalType": "address",
          "name": "approved",
          "type": "address"
        },
        {
          "indexed": true,
          "internalType": "uint256",
          "name": "tokenId",
          "type": "uint256"
        }
      ],
      "name": "Approval",
      "type": "event"
    },
    {
      "anonymous": false,
      "inputs": [
        {
          "indexed": true,
          "internalType": "address",
          "name": "owner",
          "type": "address"
        },
        {
          "indexed": true,
          "internalType": "address",
          "name": "operator",
          "type": "address"
        },
        {
          "indexed": false,
          "internalType": "bool",
          "name": "approved",
          "type": "bool"
        }
      ],
      "name": "ApprovalForAll",
      "type": "event"
    },
    {
      "anonymous": false,
      "inputs": [
        {
          "indexed": true,
          "internalType": "uint256",
          "name": "tokenId",
          "type": "uint256"
        },
        {
          "indexed": false,
          "internalType": "address",
          "name": "owner",
          "type": "address"
        },
        {
          "indexed": false,
          "internalType": "address",
          "name": "seller",
          "type": "address"
        },
        {
          "indexed": false,
          "internalType": "uint256",
          "name": "price",
          "type": "uint256"
        },
        {
          "indexed": false,
          "internalType": "bool",
          "name": "currentlyListed",
          "type": "bool"
        }
      ],
      "name": "TokenListedSuccess",
      "type": "event"
    },
    {
      "anonymous": false,
      "inputs": [
        {
          "indexed": true,
          "internalType": "address",
          "name": "from",
          "type": "address"
        },
        {
          "indexed": true,
          "internalType": "address",
          "name": "to",
          "type": "address"
        },
        {
          "indexed": true,
          "internalType": "uint256",
          "name": "tokenId",
          "type": "uint256"
        }
      ],
      "name": "Transfer",
      "type": "event"
    },
    {
      "inputs": [
        {
          "internalType": "address",
          "name": "to",
          "type": "address"
        },
        {
          "internalType": "uint256",
          "name": "tokenId",
          "type": "uint256"
        }
      ],
      "name": "approve",
      "outputs": [],
      "stateMutability": "nonpayable",
      "type": "function"
    },
    {
      "inputs": [
        {
          "internalType": "address",
          "name": "owner",
          "type": "address"
        }
      ],
      "name": "balanceOf",
      "outputs": [
        {
          "internalType": "uint256",
          "name": "",
          "type": "uint256"
        }
      ],
      "stateMutability": "view",
      "type": "function"
    },
    {
      "inputs": [
        {
          "internalType": "string",
          "name": "tokenURI",
          "type": "string"
        },
        {
          "internalType": "uint256",
          "name": "price",
          "type": "uint256"
        }
      ],
      "name": "createToken",
      "outputs": [
        {
          "internalType": "uint256",
          "name": "",
          "type": "uint256"
        }
      ],
      "stateMutability": "payable",
      "type": "function"
    },
    {
      "inputs": [
        {
          "internalType": "uint256",
          "name": "tokenId",
          "type": "uint256"
        }
      ],
      "name": "executeSale",
      "outputs": [],
      "stateMutability": "payable",
      "type": "function"
    },
    {
      "inputs": [],
      "name": "getAllNFTs",
      "outputs": [
        {
          "components": [
            {
              "internalType": "uint256",
              "name": "tokenId",
              "type": "uint256"
            },
            {
              "internalType": "address payable",
              "name": "owner",
              "type": "address"
            },
            {
              "internalType": "address payable",
              "name": "seller",
              "type": "address"
            },
            {
              "internalType": "uint256",
              "name": "price",
              "type": "uint256"
            },
            {
              "internalType": "bool",
              "name": "currentlyListed",
              "type": "bool"
            }
          ],
          "internalType": "struct NFTMarketplace.ListedToken[]",
          "name": "",
          "type": "tuple[]"
        }
      ],
      "stateMutability": "view",
      "type": "function"
    },
    {
      "inputs": [
        {
          "internalType": "uint256",
          "name": "tokenId",
          "type": "uint256"
        }
      ],
      "name": "getApproved",
      "outputs": [
        {
          "internalType": "address",
          "name": "",
          "type": "address"
        }
      ],
      "stateMutability": "view",
      "type": "function"
    },
    {
      "inputs": [],
      "name": "getCurrentToken",
      "outputs": [
        {
          "internalType": "uint256",
          "name": "",
          "type": "uint256"
        }
      ],
      "stateMutability": "view",
      "type": "function"
    },
    {
      "inputs": [],
      "name": "getLatestIdToListedToken",
      "outputs": [
        {
          "components": [
            {
              "internalType": "uint256",
              "name": "tokenId",
              "type": "uint256"
            },
            {
              "internalType": "address payable",
              "name": "owner",
              "type": "address"
            },
            {
              "internalType": "address payable",
              "name": "seller",
              "type": "address"
            },
            {
              "internalType": "uint256",
              "name": "price",
              "type": "uint256"
            },
            {
              "internalType": "bool",
              "name": "currentlyListed",
              "type": "bool"
            }
          ],
          "internalType": "struct NFTMarketplace.ListedToken",
          "name": "",
          "type": "tuple"
        }
      ],
      "stateMutability": "view",
      "type": "function"
    },
    {
      "inputs": [],
      "name": "getListPrice",
      "outputs": [
        {
          "internalType": "uint256",
          "name": "",
          "type": "uint256"
        }
      ],
      "stateMutability": "view",
      "type": "function"
    },
    {
      "inputs": [
        {
          "internalType": "uint256",
          "name": "tokenId",
          "type": "uint256"
        }
      ],
      "name": "getListedTokenForId",
      "outputs": [
        {
          "components": [
            {
              "internalType": "uint256",
              "name": "tokenId",
              "type": "uint256"
            },
            {
              "internalType": "address payable",
              "name": "owner",
              "type": "address"
            },
            {
              "internalType": "address payable",
              "name": "seller",
              "type": "address"
            },
            {
              "internalType": "uint256",
              "name": "price",
              "type": "uint256"
            },
            {
              "internalType": "bool",
              "name": "currentlyListed",
              "type": "bool"
            }
          ],
          "internalType": "struct NFTMarketplace.ListedToken",
          "name": "",
          "type": "tuple"
        }
      ],
      "stateMutability": "view",
      "type": "function"
    },
    {
      "inputs": [],
      "name": "getMyNFTS",
      "outputs": [
        {
          "components": [
            {
              "internalType": "uint256",
              "name": "tokenId",
              "type": "uint256"
            },
            {
              "internalType": "address payable",
              "name": "owner",
              "type": "address"
            },
            {
              "internalType": "address payable",
              "name": "seller",
              "type": "address"
            },
            {
              "internalType": "uint256",
              "name": "price",
              "type": "uint256"
            },
            {
              "internalType": "bool",
              "name": "currentlyListed",
              "type": "bool"
            }
          ],
          "internalType": "struct NFTMarketplace.ListedToken[]",
          "name": "",
          "type": "tuple[]"
        }
      ],
      "stateMutability": "view",
      "type": "function"
    },
    {
      "inputs": [
        {
          "internalType": "address",
          "name": "owner",
          "type": "address"
        },
        {
          "internalType": "address",
          "name": "operator",
          "type": "address"
        }
      ],
      "name": "isApprovedForAll",
      "outputs": [
        {
          "internalType": "bool",
          "name": "",
          "type": "bool"
        }
      ],
      "stateMutability": "view",
      "type": "function"
    },
    {
      "inputs": [],
      "name": "name",
      "outputs": [
        {
          "internalType": "string",
          "name": "",
          "type": "string"
        }
      ],
      "stateMutability": "view",
      "type": "function"
    },
    {
      "inputs": [
        {
          "internalType": "uint256",
          "name": "tokenId",
          "type": "uint256"
        }
      ],
      "name": "ownerOf",
      "outputs": [
        {
          "internalType": "address",
          "name": "",
          "type": "address"
        }
      ],
      "stateMutability": "view",
      "type": "function"
    },
    {
      "inputs": [
        {
          "internalType": "address",
          "name": "from",
          "type": "address"
        },
        {
          "internalType": "address",
          "name": "to",
          "type": "address"
        },
        {
          "internalType": "uint256",
          "name": "tokenId",
          "type": "uint256"
        }
      ],
      "name": "safeTransferFrom",
      "outputs": [],
      "stateMutability": "nonpayable",
      "type": "function"
    },
    {
      "inputs": [
        {
          "internalType": "address",
          "name": "from",
          "type": "address"
        },
        {
          "internalType": "address",
          "name": "to",
          "type": "address"
        },
        {
          "internalType": "uint256",
          "name": "tokenId",
          "type": "uint256"
        },
        {
          "internalType": "bytes",
          "name": "data",
          "type": "bytes"
        }
      ],
      "name": "safeTransferFrom",
      "outputs": [],
      "stateMutability": "nonpayable",
      "type": "function"
    },
    {
      "inputs": [
        {
          "internalType": "address",
          "name": "operator",
          "type": "address"
        },
        {
          "internalType": "bool",
          "name": "approved",
          "type": "bool"
        }
      ],
      "name": "setApprovalForAll",
      "outputs": [],
      "stateMutability": "nonpayable",
      "type": "function"
    },
    {
      "inputs": [
        {
          "internalType": "bytes4",
          "name": "interfaceId",
          "type": "bytes4"
        }
      ],
      "name": "supportsInterface",
      "outputs": [
        {
          "internalType": "bool",
          "name": "",
          "type": "bool"
        }
      ],
      "stateMutability": "view",
      "type": "function"
    },
    {
      "inputs": [],
      "name": "symbol",
      "outputs": [
        {
          "internalType": "string",
          "name": "",
          "type": "string"
        }
      ],
      "stateMutability": "view",
      "type": "function"
    },
    {
      "inputs": [
        {
          "internalType": "uint256",
          "name": "tokenId",
          "type": "uint256"
        }
      ],
      "name": "tokenURI",
      "outputs": [
        {
          "internalType": "string",
          "name": "",
          "type": "string"
        }
      ],
      "stateMutability": "view",
      "type": "function"
    },
    {
      "inputs": [
        {
          "internalType": "address",
          "name": "from",
          "type": "address"
        },
        {
          "internalType": "address",
          "name": "to",
          "type": "address"
        },
        {
          "internalType": "uint256",
          "name": "tokenId",
          "type": "uint256"
        }
      ],
      "name": "transferFrom",
      "outputs": [],
      "stateMutability": "nonpayable",
      "type": "function"
    },
    {
      "inputs": [
        {
          "internalType": "uint256",
          "name": "_listedPrice",
          "type": "uint256"
        }
      ],
      "name": "updateListPrice",
      "outputs": [],
      "stateMutability": "payable",
      "type": "function"
    }
  ],
  "bytecode": "0x6080604052662386f26fc10000600a553480156200001c57600080fd5b50604080518082018252600e81526d4e46544d61726b6574706c61636560901b6020808301918252835180850190945260048452634e46544d60e01b9084015281519192916200006f91600091620000a0565b50805162000085906001906020840190620000a0565b5050600980546001600160a01b031916331790555062000183565b828054620000ae9062000146565b90600052602060002090601f016020900481019282620000d257600085556200011d565b82601f10620000ed57805160ff19168380011785556200011d565b828001600101855582156200011d579182015b828111156200011d57825182559160200191906001019062000100565b506200012b9291506200012f565b5090565b5b808211156200012b576000815560010162000130565b600181811c908216806200015b57607f821691505b602082108114156200017d57634e487b7160e01b600052602260045260246000fd5b50919050565b61215f80620001936000396000f3fe6080604052600436106101355760003560e01c806395d89b41116100ab578063c87b56dd1161006f578063c87b56dd14610345578063d1a88ae514610365578063e0391b091461037a578063e985e9c51461039c578063e9e8e962146103e5578063ef2d1746146103fa57600080fd5b806395d89b41146102ca5780639b1225c4146102df578063a22cb465146102f2578063b88d4fde14610312578063c322579c1461033257600080fd5b806342842e0e116100fd57806342842e0e1461020b5780636352211e1461022b57806368f1945f1461024b57806370a082311461026a57806372b3b6201461028a5780638e2645901461029d57600080fd5b806301ffc9a71461013a57806306fdde031461016f578063081812fc14610191578063095ea7b3146101c957806323b872dd146101eb575b600080fd5b34801561014657600080fd5b5061015a610155366004611d65565b61040f565b60405190151581526020015b60405180910390f35b34801561017b57600080fd5b50610184610461565b6040516101669190611f31565b34801561019d57600080fd5b506101b16101ac366004611df3565b6104f3565b6040516001600160a01b039091168152602001610166565b3480156101d557600080fd5b506101e96101e4366004611d3c565b61051a565b005b3480156101f757600080fd5b506101e9610206366004611c4e565b610635565b34801561021757600080fd5b506101e9610226366004611c4e565b610666565b34801561023757600080fd5b506101b1610246366004611df3565b610681565b34801561025757600080fd5b50600a545b604051908152602001610166565b34801561027657600080fd5b5061025c610285366004611c02565b6106e1565b61025c610298366004611d9d565b610767565b3480156102a957600080fd5b506102bd6102b8366004611df3565b6107a9565b6040516101669190612028565b3480156102d657600080fd5b50610184610813565b6101e96102ed366004611df3565b610822565b3480156102fe57600080fd5b506101e961030d366004611d02565b610984565b34801561031e57600080fd5b506101e961032d366004611c89565b610993565b6101e9610340366004611df3565b6109c5565b34801561035157600080fd5b50610184610360366004611df3565b610a35565b34801561037157600080fd5b506102bd610b46565b34801561038657600080fd5b5061038f610bbd565b6040516101669190611ee3565b3480156103a857600080fd5b5061015a6103b7366004611c1c565b6001600160a01b03918216600090815260056020908152604080832093909416825291909152205460ff1690565b3480156103f157600080fd5b5061038f610d04565b34801561040657600080fd5b5061025c610f49565b60006001600160e01b031982166380ac58cd60e01b148061044057506001600160e01b03198216635b5e139f60e01b145b8061045b57506301ffc9a760e01b6001600160e01b03198316145b92915050565b60606000805461047090612091565b80601f016020809104026020016040519081016040528092919081815260200182805461049c90612091565b80156104e95780601f106104be576101008083540402835291602001916104e9565b820191906000526020600020905b8154815290600101906020018083116104cc57829003601f168201915b5050505050905090565b60006104fe82610f59565b506000908152600460205260409020546001600160a01b031690565b600061052582610681565b9050806001600160a01b0316836001600160a01b031614156105985760405162461bcd60e51b815260206004820152602160248201527f4552433732313a20617070726f76616c20746f2063757272656e74206f776e656044820152603960f91b60648201526084015b60405180910390fd5b336001600160a01b03821614806105b457506105b481336103b7565b6106265760405162461bcd60e51b815260206004820152603d60248201527f4552433732313a20617070726f76652063616c6c6572206973206e6f7420746f60448201527f6b656e206f776e6572206f7220617070726f76656420666f7220616c6c000000606482015260840161058f565b6106308383610fbb565b505050565b61063f3382611029565b61065b5760405162461bcd60e51b815260040161058f90611f44565b6106308383836110a7565b61063083838360405180602001604052806000815250610993565b6000818152600260205260408120546001600160a01b03168061045b5760405162461bcd60e51b8152602060048201526018602482015277115490cdcc8c4e881a5b9d985b1a59081d1bdad95b88125160421b604482015260640161058f565b60006001600160a01b03821661074b5760405162461bcd60e51b815260206004820152602960248201527f4552433732313a2061646472657373207a65726f206973206e6f7420612076616044820152683634b21037bbb732b960b91b606482015260840161058f565b506001600160a01b031660009081526003602052604090205490565b6000610777600780546001019055565b600061078260075490565b905061078e3382611218565b6107988185611232565b6107a281846112cc565b9392505050565b6107b1611aa9565b506000908152600b6020908152604091829020825160a0810184528154815260018201546001600160a01b03908116938201939093526002820154909216928201929092526003820154606082015260049091015460ff161515608082015290565b60606001805461047090612091565b6000818152600b6020526040902060038101546002909101546001600160a01b03163482146108b95760405162461bcd60e51b815260206004820152603760248201527f506c65617365207375626d6974207468652061736b696e67207072696365207460448201527f6f20636f6d706c65746520746865207075726368617365000000000000000000606482015260840161058f565b6000838152600b6020526040902060048101805460ff1916600117905560020180546001600160a01b031916331790556108f7600880546001019055565b6109023033856110a7565b61090c308461051a565b600954600a546040516001600160a01b039092169181156108fc0291906000818181858888f19350505050158015610948573d6000803e3d6000fd5b506040516001600160a01b038216903480156108fc02916000818181858888f1935050505015801561097e573d6000803e3d6000fd5b50505050565b61098f338383611450565b5050565b61099d3383611029565b6109b95760405162461bcd60e51b815260040161058f90611f44565b61097e8484848461151f565b6009546001600160a01b03163314610a305760405162461bcd60e51b815260206004820152602860248201527f4f6e6c7920746865206f776e65722063616e2075706461746520746865206c69604482015267737420707269636560c01b606482015260840161058f565b600a55565b6060610a4082610f59565b60008281526006602052604081208054610a5990612091565b80601f0160208091040260200160405190810160405280929190818152602001828054610a8590612091565b8015610ad25780601f10610aa757610100808354040283529160200191610ad2565b820191906000526020600020905b815481529060010190602001808311610ab557829003601f168201915b505050505090506000610af060408051602081019091526000815290565b9050805160001415610b03575092915050565b815115610b35578082604051602001610b1d929190611e77565b60405160208183030381529060405292505050919050565b610b3e84611552565b949350505050565b610b4e611aa9565b6000610b5960075490565b6000908152600b6020908152604091829020825160a0810184528154815260018201546001600160a01b03908116938201939093526002820154909216928201929092526003820154606082015260049091015460ff161515608082015292915050565b60606000610bca60075490565b905060008167ffffffffffffffff811115610bf557634e487b7160e01b600052604160045260246000fd5b604051908082528060200260200182016040528015610c2e57816020015b610c1b611aa9565b815260200190600190039081610c135790505b5090506000805b83811015610cfb576000610c4a826001612036565b6000818152600b6020908152604091829020825160a0810184528154815260018201546001600160a01b039081169382019390935260028201549092169282019290925260038201546060820152600482015460ff161515608082015286519293509091869086908110610cce57634e487b7160e01b600052603260045260246000fd5b6020908102919091010152610ce4600185612036565b935050508080610cf3906120cc565b915050610c35565b50909392505050565b60606000610d1160075490565b905060008060005b83811015610da95733600b6000610d31846001612036565b81526020810191909152604001600020600101546001600160a01b03161480610d84575033600b6000610d65846001612036565b81526020810191909152604001600020600201546001600160a01b0316145b15610d9757610d94600184612036565b92505b80610da1816120cc565b915050610d19565b5060008267ffffffffffffffff811115610dd357634e487b7160e01b600052604160045260246000fd5b604051908082528060200260200182016040528015610e0c57816020015b610df9611aa9565b815260200190600190039081610df15790505b50905060005b84811015610f405733600b6000610e2a846001612036565b81526020810191909152604001600020600101546001600160a01b03161480610e7d575033600b6000610e5e846001612036565b81526020810191909152604001600020600201546001600160a01b0316145b15610f2e576000610e8f826001612036565b6000818152600b6020908152604091829020825160a0810184528154815260018201546001600160a01b039081169382019390935260028201549092169282019290925260038201546060820152600482015460ff161515608082015285519293509091859087908110610f1357634e487b7160e01b600052603260045260246000fd5b6020908102919091010152610f29600186612036565b945050505b80610f38816120cc565b915050610e12565b50949350505050565b6000610f5460075490565b905090565b6000818152600260205260409020546001600160a01b0316610fb85760405162461bcd60e51b8152602060048201526018602482015277115490cdcc8c4e881a5b9d985b1a59081d1bdad95b88125160421b604482015260640161058f565b50565b600081815260046020526040902080546001600160a01b0319166001600160a01b0384169081179091558190610ff082610681565b6001600160a01b03167f8c5be1e5ebec7d5bd14f71427d1e84f3dd0314c0f7b2291e5b200ac8c7c3b92560405160405180910390a45050565b60008061103583610681565b9050806001600160a01b0316846001600160a01b0316148061107c57506001600160a01b0380821660009081526005602090815260408083209388168352929052205460ff165b80610b3e5750836001600160a01b0316611095846104f3565b6001600160a01b031614949350505050565b826001600160a01b03166110ba82610681565b6001600160a01b0316146110e05760405162461bcd60e51b815260040161058f90611fe3565b6001600160a01b0382166111425760405162461bcd60e51b8152602060048201526024808201527f4552433732313a207472616e7366657220746f20746865207a65726f206164646044820152637265737360e01b606482015260840161058f565b61114f83838360016115c5565b826001600160a01b031661116282610681565b6001600160a01b0316146111885760405162461bcd60e51b815260040161058f90611fe3565b600081815260046020908152604080832080546001600160a01b03199081169091556001600160a01b0387811680865260038552838620805460001901905590871680865283862080546001019055868652600290945282852080549092168417909155905184937fddf252ad1be2c89b69c2b068fc378daa952ba7f163c4a11628f55a4df523b3ef91a4505050565b61098f82826040518060200160405280600081525061164d565b6000828152600260205260409020546001600160a01b03166112ad5760405162461bcd60e51b815260206004820152602e60248201527f45524337323155524953746f726167653a2055524920736574206f66206e6f6e60448201526d32bc34b9ba32b73a103a37b5b2b760911b606482015260840161058f565b6000828152600660209081526040909120825161063092840190611ad7565b600a5434146113165760405162461bcd60e51b815260206004820152601660248201527553656e642074686520436f727265637420507269636560501b604482015260640161058f565b600081116113665760405162461bcd60e51b815260206004820152601a60248201527f50726963652073686f756c646e74206265206e65676174697665000000000000604482015260640161058f565b6040805160a081018252838152306020808301828152338486018181526060860188815260016080880181815260008c8152600b9097529890952096518755925193860180546001600160a01b039586166001600160a01b03199182161790915590516002870180549190951691161790925551600384015592516004909201805492151560ff19909316929092179091556114039190846110a7565b604080513081523360208201529081018290526001606082015282907f9339409317fd01fabff48b703019016f49159bacc801ae872d2ca637d226e4c09060800160405180910390a25050565b816001600160a01b0316836001600160a01b031614156114b25760405162461bcd60e51b815260206004820152601960248201527f4552433732313a20617070726f766520746f2063616c6c657200000000000000604482015260640161058f565b6001600160a01b03838116600081815260056020908152604080832094871680845294825291829020805460ff191686151590811790915591519182527f17307eab39ab6107e8899845ad3d59bd9653f200f220920489ca2b5937696c31910160405180910390a3505050565b61152a8484846110a7565b61153684848484611680565b61097e5760405162461bcd60e51b815260040161058f90611f91565b606061155d82610f59565b600061157460408051602081019091526000815290565b9050600081511161159457604051806020016040528060008152506107a2565b8061159e8461178d565b6040516020016115af929190611e77565b6040516020818303038152906040529392505050565b600181111561097e576001600160a01b0384161561160b576001600160a01b0384166000908152600360205260408120805483929061160590849061204e565b90915550505b6001600160a01b0383161561097e576001600160a01b03831660009081526003602052604081208054839290611642908490612036565b909155505050505050565b6116578383611838565b6116646000848484611680565b6106305760405162461bcd60e51b815260040161058f90611f91565b60006001600160a01b0384163b1561178257604051630a85bd0160e11b81526001600160a01b0385169063150b7a02906116c4903390899088908890600401611ea6565b602060405180830381600087803b1580156116de57600080fd5b505af192505050801561170e575060408051601f3d908101601f1916820190925261170b91810190611d81565b60015b611768573d80801561173c576040519150601f19603f3d011682016040523d82523d6000602084013e611741565b606091505b5080516117605760405162461bcd60e51b815260040161058f90611f91565b805181602001fd5b6001600160e01b031916630a85bd0160e11b149050610b3e565b506001949350505050565b6060600061179a836119d1565b600101905060008167ffffffffffffffff8111156117c857634e487b7160e01b600052604160045260246000fd5b6040519080825280601f01601f1916602001820160405280156117f2576020820181803683370190505b5090508181016020015b600019016f181899199a1a9b1b9c1cb0b131b232b360811b600a86061a8153600a850494508461182b57611830565b6117fc565b509392505050565b6001600160a01b03821661188e5760405162461bcd60e51b815260206004820181905260248201527f4552433732313a206d696e7420746f20746865207a65726f2061646472657373604482015260640161058f565b6000818152600260205260409020546001600160a01b0316156118f35760405162461bcd60e51b815260206004820152601c60248201527f4552433732313a20746f6b656e20616c7265616479206d696e74656400000000604482015260640161058f565b6119016000838360016115c5565b6000818152600260205260409020546001600160a01b0316156119665760405162461bcd60e51b815260206004820152601c60248201527f4552433732313a20746f6b656e20616c7265616479206d696e74656400000000604482015260640161058f565b6001600160a01b038216600081815260036020908152604080832080546001019055848352600290915280822080546001600160a01b0319168417905551839291907fddf252ad1be2c89b69c2b068fc378daa952ba7f163c4a11628f55a4df523b3ef908290a45050565b60008072184f03e93ff9f4daa797ed6e38ed64bf6a1f0160401b8310611a105772184f03e93ff9f4daa797ed6e38ed64bf6a1f0160401b830492506040015b6d04ee2d6d415b85acef81000000008310611a3c576d04ee2d6d415b85acef8100000000830492506020015b662386f26fc100008310611a5a57662386f26fc10000830492506010015b6305f5e1008310611a72576305f5e100830492506008015b6127108310611a8657612710830492506004015b60648310611a98576064830492506002015b600a831061045b5760010192915050565b6040805160a08101825260008082526020820181905291810182905260608101829052608081019190915290565b828054611ae390612091565b90600052602060002090601f016020900481019282611b055760008555611b4b565b82601f10611b1e57805160ff1916838001178555611b4b565b82800160010185558215611b4b579182015b82811115611b4b578251825591602001919060010190611b30565b50611b57929150611b5b565b5090565b5b80821115611b575760008155600101611b5c565b600067ffffffffffffffff80841115611b8b57611b8b6120fd565b604051601f8501601f19908116603f01168101908282118183101715611bb357611bb36120fd565b81604052809350858152868686011115611bcc57600080fd5b858560208301376000602087830101525050509392505050565b80356001600160a01b0381168114611bfd57600080fd5b919050565b600060208284031215611c13578081fd5b6107a282611be6565b60008060408385031215611c2e578081fd5b611c3783611be6565b9150611c4560208401611be6565b90509250929050565b600080600060608486031215611c62578081fd5b611c6b84611be6565b9250611c7960208501611be6565b9150604084013590509250925092565b60008060008060808587031215611c9e578081fd5b611ca785611be6565b9350611cb560208601611be6565b925060408501359150606085013567ffffffffffffffff811115611cd7578182fd5b8501601f81018713611ce7578182fd5b611cf687823560208401611b70565b91505092959194509250565b60008060408385031215611d14578182fd5b611d1d83611be6565b915060208301358015158114611d31578182fd5b809150509250929050565b60008060408385031215611d4e578182fd5b611d5783611be6565b946020939093013593505050565b600060208284031215611d76578081fd5b81356107a281612113565b600060208284031215611d92578081fd5b81516107a281612113565b60008060408385031215611daf578182fd5b823567ffffffffffffffff811115611dc5578283fd5b8301601f81018513611dd5578283fd5b611de485823560208401611b70565b95602094909401359450505050565b600060208284031215611e04578081fd5b5035919050565b60008151808452611e23816020860160208601612065565b601f01601f19169290920160200192915050565b805182526020808201516001600160a01b039081169184019190915260408083015190911690830152606080820151908301526080908101511515910152565b60008351611e89818460208801612065565b835190830190611e9d818360208801612065565b01949350505050565b6001600160a01b0385811682528416602082015260408101839052608060608201819052600090611ed990830184611e0b565b9695505050505050565b6020808252825182820181905260009190848201906040850190845b81811015611f2557611f12838551611e37565b9284019260a09290920191600101611eff565b50909695505050505050565b6020815260006107a26020830184611e0b565b6020808252602d908201527f4552433732313a2063616c6c6572206973206e6f7420746f6b656e206f776e6560408201526c1c881bdc88185c1c1c9bdd9959609a1b606082015260800190565b60208082526032908201527f4552433732313a207472616e7366657220746f206e6f6e20455243373231526560408201527131b2b4bb32b91034b6b83632b6b2b73a32b960711b606082015260800190565b60208082526025908201527f4552433732313a207472616e736665722066726f6d20696e636f72726563742060408201526437bbb732b960d91b606082015260800190565b60a0810161045b8284611e37565b60008219821115612049576120496120e7565b500190565b600082821015612060576120606120e7565b500390565b60005b83811015612080578181015183820152602001612068565b8381111561097e5750506000910152565b600181811c908216806120a557607f821691505b602082108114156120c657634e487b7160e01b600052602260045260246000fd5b50919050565b60006000198214156120e0576120e06120e7565b5060010190565b634e487b7160e01b600052601160045260246000fd5b634e487b7160e01b600052604160045260246000fd5b6001600160e01b031981168114610fb857600080fdfea2646970667358221220d60b5c6117cae995eb470ca401c4a06a04c7ba31d3e999c097dede0e96ce6df264736f6c63430008040033",
  "linkReferences": {},
  "deployedLinkReferences": {}
}